{
  "_format": "hh-sol-artifact-1",
  "contractName": "DeemoNFT",
  "sourceName": "contracts/DeemoNFT.sol",
  "abi": [
    {
      "inputs": [],
      "stateMutability": "nonpayable",
      "type": "constructor"
    },
    {
      "anonymous": false,
      "inputs": [
        {
          "indexed": true,
          "internalType": "address",
          "name": "owner",
          "type": "address"
        },
        {
          "indexed": true,
          "internalType": "address",
          "name": "approved",
          "type": "address"
        },
        {
          "indexed": true,
          "internalType": "uint256",
          "name": "tokenId",
          "type": "uint256"
        }
      ],
      "name": "Approval",
      "type": "event"
    },
    {
      "anonymous": false,
      "inputs": [
        {
          "indexed": true,
          "internalType": "address",
          "name": "owner",
          "type": "address"
        },
        {
          "indexed": true,
          "internalType": "address",
          "name": "operator",
          "type": "address"
        },
        {
          "indexed": false,
          "internalType": "bool",
          "name": "approved",
          "type": "bool"
        }
      ],
      "name": "ApprovalForAll",
      "type": "event"
    },
    {
      "anonymous": false,
      "inputs": [
        {
          "indexed": true,
          "internalType": "address",
          "name": "from",
          "type": "address"
        },
        {
          "indexed": true,
          "internalType": "address",
          "name": "to",
          "type": "address"
        },
        {
          "indexed": true,
          "internalType": "uint256",
          "name": "tokenId",
          "type": "uint256"
        }
      ],
      "name": "Transfer",
      "type": "event"
    },
    {
      "inputs": [
        {
          "internalType": "address",
          "name": "to",
          "type": "address"
        },
        {
          "internalType": "uint256",
          "name": "tokenId",
          "type": "uint256"
        }
      ],
      "name": "approve",
      "outputs": [],
      "stateMutability": "nonpayable",
      "type": "function"
    },
    {
      "inputs": [
        {
          "internalType": "address",
          "name": "owner",
          "type": "address"
        }
      ],
      "name": "balanceOf",
      "outputs": [
        {
          "internalType": "uint256",
          "name": "",
          "type": "uint256"
        }
      ],
      "stateMutability": "view",
      "type": "function"
    },
    {
      "inputs": [
        {
          "internalType": "uint256",
          "name": "tokenId",
          "type": "uint256"
        }
      ],
      "name": "getApproved",
      "outputs": [
        {
          "internalType": "address",
          "name": "",
          "type": "address"
        }
      ],
      "stateMutability": "view",
      "type": "function"
    },
    {
      "inputs": [
        {
          "internalType": "address",
          "name": "owner",
          "type": "address"
        },
        {
          "internalType": "address",
          "name": "operator",
          "type": "address"
        }
      ],
      "name": "isApprovedForAll",
      "outputs": [
        {
          "internalType": "bool",
          "name": "",
          "type": "bool"
        }
      ],
      "stateMutability": "view",
      "type": "function"
    },
    {
      "inputs": [
        {
          "internalType": "string",
          "name": "tokenURI",
          "type": "string"
        }
      ],
      "name": "makeNFT",
      "outputs": [
        {
          "internalType": "uint256",
          "name": "",
          "type": "uint256"
        }
      ],
      "stateMutability": "nonpayable",
      "type": "function"
    },
    {
      "inputs": [],
      "name": "name",
      "outputs": [
        {
          "internalType": "string",
          "name": "",
          "type": "string"
        }
      ],
      "stateMutability": "view",
      "type": "function"
    },
    {
      "inputs": [
        {
          "internalType": "uint256",
          "name": "tokenId",
          "type": "uint256"
        }
      ],
      "name": "ownerOf",
      "outputs": [
        {
          "internalType": "address",
          "name": "",
          "type": "address"
        }
      ],
      "stateMutability": "view",
      "type": "function"
    },
    {
      "inputs": [
        {
          "internalType": "address",
          "name": "from",
          "type": "address"
        },
        {
          "internalType": "address",
          "name": "to",
          "type": "address"
        },
        {
          "internalType": "uint256",
          "name": "tokenId",
          "type": "uint256"
        }
      ],
      "name": "safeTransferFrom",
      "outputs": [],
      "stateMutability": "nonpayable",
      "type": "function"
    },
    {
      "inputs": [
        {
          "internalType": "address",
          "name": "from",
          "type": "address"
        },
        {
          "internalType": "address",
          "name": "to",
          "type": "address"
        },
        {
          "internalType": "uint256",
          "name": "tokenId",
          "type": "uint256"
        },
        {
          "internalType": "bytes",
          "name": "_data",
          "type": "bytes"
        }
      ],
      "name": "safeTransferFrom",
      "outputs": [],
      "stateMutability": "nonpayable",
      "type": "function"
    },
    {
      "inputs": [
        {
          "internalType": "address",
          "name": "operator",
          "type": "address"
        },
        {
          "internalType": "bool",
          "name": "approved",
          "type": "bool"
        }
      ],
      "name": "setApprovalForAll",
      "outputs": [],
      "stateMutability": "nonpayable",
      "type": "function"
    },
    {
      "inputs": [
        {
          "internalType": "bytes4",
          "name": "interfaceId",
          "type": "bytes4"
        }
      ],
      "name": "supportsInterface",
      "outputs": [
        {
          "internalType": "bool",
          "name": "",
          "type": "bool"
        }
      ],
      "stateMutability": "view",
      "type": "function"
    },
    {
      "inputs": [],
      "name": "symbol",
      "outputs": [
        {
          "internalType": "string",
          "name": "",
          "type": "string"
        }
      ],
      "stateMutability": "view",
      "type": "function"
    },
    {
      "inputs": [
        {
          "internalType": "uint256",
          "name": "tokenId",
          "type": "uint256"
        }
      ],
      "name": "tokenURI",
      "outputs": [
        {
          "internalType": "string",
          "name": "",
          "type": "string"
        }
      ],
      "stateMutability": "view",
      "type": "function"
    },
    {
      "inputs": [
        {
          "internalType": "address",
          "name": "from",
          "type": "address"
        },
        {
          "internalType": "address",
          "name": "to",
          "type": "address"
        },
        {
          "internalType": "uint256",
          "name": "tokenId",
          "type": "uint256"
        }
      ],
      "name": "transferFrom",
      "outputs": [],
      "stateMutability": "nonpayable",
      "type": "function"
    }
  ],
  "bytecode": "0x60806040523480156200001157600080fd5b506040518060400160405280600881526020017f4465656d6f4e46540000000000000000000000000000000000000000000000008152506040518060400160405280600581526020017f4445454d4f000000000000000000000000000000000000000000000000000000815250816000908051906020019062000096929190620001cf565b508060019080519060200190620000af929190620001cf565b505050620000fd6040518060400160405280601e81526020017f54686973206973206d79204e465420636f6e74726163742e20576f61682100008152506200010360201b62000b281760201c565b620003ac565b620001a3816040516024016200011a9190620002c0565b6040516020818303038152906040527f41304fac000000000000000000000000000000000000000000000000000000007bffffffffffffffffffffffffffffffffffffffffffffffffffffffff19166020820180517bffffffffffffffffffffffffffffffffffffffffffffffffffffffff8381831617835250505050620001a660201b60201c565b50565b60008151905060006a636f6e736f6c652e6c6f679050602083016000808483855afa5050505050565b828054620001dd9062000336565b90600052602060002090601f0160209004810192826200020157600085556200024d565b82601f106200021c57805160ff19168380011785556200024d565b828001600101855582156200024d579182015b828111156200024c5782518255916020019190600101906200022f565b5b5090506200025c919062000260565b5090565b5b808211156200027b57600081600090555060010162000261565b5090565b60006200028c82620002e4565b620002988185620002ef565b9350620002aa81856020860162000300565b620002b5816200039b565b840191505092915050565b60006020820190508181036000830152620002dc81846200027f565b905092915050565b600081519050919050565b600082825260208201905092915050565b60005b838110156200032057808201518184015260208101905062000303565b8381111562000330576000848401525b50505050565b600060028204905060018216806200034f57607f821691505b602082108114156200036657620003656200036c565b5b50919050565b7f4e487b7100000000000000000000000000000000000000000000000000000000600052602260045260246000fd5b6000601f19601f8301169050919050565b612cc080620003bc6000396000f3fe608060405234801561001057600080fd5b50600436106100ea5760003560e01c806370a082311161008c578063b88d4fde11610066578063b88d4fde1461025b578063c87b56dd14610277578063c910262f146102a7578063e985e9c5146102d7576100ea565b806370a08231146101f157806395d89b4114610221578063a22cb4651461023f576100ea565b8063095ea7b3116100c8578063095ea7b31461016d57806323b872dd1461018957806342842e0e146101a55780636352211e146101c1576100ea565b806301ffc9a7146100ef57806306fdde031461011f578063081812fc1461013d575b600080fd5b61010960048036038101906101049190611d2c565b610307565b6040516101169190612173565b60405180910390f35b6101276103e9565b604051610134919061218e565b60405180910390f35b61015760048036038101906101529190611dbf565b61047b565b604051610164919061210c565b60405180910390f35b61018760048036038101906101829190611cf0565b610500565b005b6101a3600480360381019061019e9190611bea565b610618565b005b6101bf60048036038101906101ba9190611bea565b610678565b005b6101db60048036038101906101d69190611dbf565b610698565b6040516101e8919061210c565b60405180910390f35b61020b60048036038101906102069190611b85565b61074a565b60405161021891906123b0565b60405180910390f35b610229610802565b604051610236919061218e565b60405180910390f35b61025960048036038101906102549190611cb4565b610894565b005b61027560048036038101906102709190611c39565b6108aa565b005b610291600480360381019061028c9190611dbf565b61090c565b60405161029e919061218e565b60405180910390f35b6102c160048036038101906102bc9190611d7e565b610a5e565b6040516102ce91906123b0565b60405180910390f35b6102f160048036038101906102ec9190611bae565b610a94565b6040516102fe9190612173565b60405180910390f35b60007f80ac58cd000000000000000000000000000000000000000000000000000000007bffffffffffffffffffffffffffffffffffffffffffffffffffffffff1916827bffffffffffffffffffffffffffffffffffffffffffffffffffffffff191614806103d257507f5b5e139f000000000000000000000000000000000000000000000000000000007bffffffffffffffffffffffffffffffffffffffffffffffffffffffff1916827bffffffffffffffffffffffffffffffffffffffffffffffffffffffff1916145b806103e257506103e182610bc1565b5b9050919050565b6060600080546103f890612606565b80601f016020809104026020016040519081016040528092919081815260200182805461042490612606565b80156104715780601f1061044657610100808354040283529160200191610471565b820191906000526020600020905b81548152906001019060200180831161045457829003601f168201915b5050505050905090565b600061048682610c2b565b6104c5576040517f08c379a00000000000000000000000000000000000000000000000000000000081526004016104bc90612330565b60405180910390fd5b6004600083815260200190815260200160002060009054906101000a900473ffffffffffffffffffffffffffffffffffffffff169050919050565b600061050b82610698565b90508073ffffffffffffffffffffffffffffffffffffffff168373ffffffffffffffffffffffffffffffffffffffff16141561057c576040517f08c379a000000000000000000000000000000000000000000000000000000000815260040161057390612370565b60405180910390fd5b8073ffffffffffffffffffffffffffffffffffffffff1661059b610c97565b73ffffffffffffffffffffffffffffffffffffffff1614806105ca57506105c9816105c4610c97565b610a94565b5b610609576040517f08c379a000000000000000000000000000000000000000000000000000000000815260040161060090612270565b60405180910390fd5b6106138383610c9f565b505050565b610629610623610c97565b82610d58565b610668576040517f08c379a000000000000000000000000000000000000000000000000000000000815260040161065f90612390565b60405180910390fd5b610673838383610e36565b505050565b610693838383604051806020016040528060008152506108aa565b505050565b6000806002600084815260200190815260200160002060009054906101000a900473ffffffffffffffffffffffffffffffffffffffff169050600073ffffffffffffffffffffffffffffffffffffffff168173ffffffffffffffffffffffffffffffffffffffff161415610741576040517f08c379a0000000000000000000000000000000000000000000000000000000008152600401610738906122b0565b60405180910390fd5b80915050919050565b60008073ffffffffffffffffffffffffffffffffffffffff168273ffffffffffffffffffffffffffffffffffffffff1614156107bb576040517f08c379a00000000000000000000000000000000000000000000000000000000081526004016107b290612290565b60405180910390fd5b600360008373ffffffffffffffffffffffffffffffffffffffff1673ffffffffffffffffffffffffffffffffffffffff168152602001908152602001600020549050919050565b60606001805461081190612606565b80601f016020809104026020016040519081016040528092919081815260200182805461083d90612606565b801561088a5780601f1061085f5761010080835404028352916020019161088a565b820191906000526020600020905b81548152906001019060200180831161086d57829003601f168201915b5050505050905090565b6108a661089f610c97565b838361109d565b5050565b6108bb6108b5610c97565b83610d58565b6108fa576040517f08c379a00000000000000000000000000000000000000000000000000000000081526004016108f190612390565b60405180910390fd5b6109068484848461120a565b50505050565b606061091782610c2b565b610956576040517f08c379a000000000000000000000000000000000000000000000000000000000815260040161094d90612310565b60405180910390fd5b600060066000848152602001908152602001600020805461097690612606565b80601f01602080910402602001604051908101604052809291908181526020018280546109a290612606565b80156109ef5780601f106109c4576101008083540402835291602001916109ef565b820191906000526020600020905b8154815290600101906020018083116109d257829003601f168201915b505050505090506000610a00611266565b9050600081511415610a16578192505050610a59565b600082511115610a4b578082604051602001610a339291906120e8565b60405160208183030381529060405292505050610a59565b610a548461127d565b925050505b919050565b600080610a6b6007611324565b9050610a773382611332565b610a818184611350565b610a8b60076113c4565b80915050919050565b6000600560008473ffffffffffffffffffffffffffffffffffffffff1673ffffffffffffffffffffffffffffffffffffffff16815260200190815260200160002060008373ffffffffffffffffffffffffffffffffffffffff1673ffffffffffffffffffffffffffffffffffffffff16815260200190815260200160002060009054906101000a900460ff16905092915050565b610bbe81604051602401610b3c919061218e565b6040516020818303038152906040527f41304fac000000000000000000000000000000000000000000000000000000007bffffffffffffffffffffffffffffffffffffffffffffffffffffffff19166020820180517bffffffffffffffffffffffffffffffffffffffffffffffffffffffff83818316178352505050506113da565b50565b60007f01ffc9a7000000000000000000000000000000000000000000000000000000007bffffffffffffffffffffffffffffffffffffffffffffffffffffffff1916827bffffffffffffffffffffffffffffffffffffffffffffffffffffffff1916149050919050565b60008073ffffffffffffffffffffffffffffffffffffffff166002600084815260200190815260200160002060009054906101000a900473ffffffffffffffffffffffffffffffffffffffff1673ffffffffffffffffffffffffffffffffffffffff1614159050919050565b600033905090565b816004600083815260200190815260200160002060006101000a81548173ffffffffffffffffffffffffffffffffffffffff021916908373ffffffffffffffffffffffffffffffffffffffff160217905550808273ffffffffffffffffffffffffffffffffffffffff16610d1283610698565b73ffffffffffffffffffffffffffffffffffffffff167f8c5be1e5ebec7d5bd14f71427d1e84f3dd0314c0f7b2291e5b200ac8c7c3b92560405160405180910390a45050565b6000610d6382610c2b565b610da2576040517f08c379a0000000000000000000000000000000000000000000000000000000008152600401610d9990612250565b60405180910390fd5b6000610dad83610698565b90508073ffffffffffffffffffffffffffffffffffffffff168473ffffffffffffffffffffffffffffffffffffffff161480610def5750610dee8185610a94565b5b80610e2d57508373ffffffffffffffffffffffffffffffffffffffff16610e158461047b565b73ffffffffffffffffffffffffffffffffffffffff16145b91505092915050565b8273ffffffffffffffffffffffffffffffffffffffff16610e5682610698565b73ffffffffffffffffffffffffffffffffffffffff1614610eac576040517f08c379a0000000000000000000000000000000000000000000000000000000008152600401610ea3906121d0565b60405180910390fd5b600073ffffffffffffffffffffffffffffffffffffffff168273ffffffffffffffffffffffffffffffffffffffff161415610f1c576040517f08c379a0000000000000000000000000000000000000000000000000000000008152600401610f1390612210565b60405180910390fd5b610f27838383611403565b610f32600082610c9f565b6001600360008573ffffffffffffffffffffffffffffffffffffffff1673ffffffffffffffffffffffffffffffffffffffff1681526020019081526020016000206000828254610f82919061251c565b925050819055506001600360008473ffffffffffffffffffffffffffffffffffffffff1673ffffffffffffffffffffffffffffffffffffffff1681526020019081526020016000206000828254610fd99190612495565b92505081905550816002600083815260200190815260200160002060006101000a81548173ffffffffffffffffffffffffffffffffffffffff021916908373ffffffffffffffffffffffffffffffffffffffff160217905550808273ffffffffffffffffffffffffffffffffffffffff168473ffffffffffffffffffffffffffffffffffffffff167fddf252ad1be2c89b69c2b068fc378daa952ba7f163c4a11628f55a4df523b3ef60405160405180910390a4611098838383611408565b505050565b8173ffffffffffffffffffffffffffffffffffffffff168373ffffffffffffffffffffffffffffffffffffffff16141561110c576040517f08c379a000000000000000000000000000000000000000000000000000000000815260040161110390612230565b60405180910390fd5b80600560008573ffffffffffffffffffffffffffffffffffffffff1673ffffffffffffffffffffffffffffffffffffffff16815260200190815260200160002060008473ffffffffffffffffffffffffffffffffffffffff1673ffffffffffffffffffffffffffffffffffffffff16815260200190815260200160002060006101000a81548160ff0219169083151502179055508173ffffffffffffffffffffffffffffffffffffffff168373ffffffffffffffffffffffffffffffffffffffff167f17307eab39ab6107e8899845ad3d59bd9653f200f220920489ca2b5937696c31836040516111fd9190612173565b60405180910390a3505050565b611215848484610e36565b6112218484848461140d565b611260576040517f08c379a0000000000000000000000000000000000000000000000000000000008152600401611257906121b0565b60405180910390fd5b50505050565b606060405180602001604052806000815250905090565b606061128882610c2b565b6112c7576040517f08c379a00000000000000000000000000000000000000000000000000000000081526004016112be90612350565b60405180910390fd5b60006112d1611266565b905060008151116112f1576040518060200160405280600081525061131c565b806112fb846115a4565b60405160200161130c9291906120e8565b6040516020818303038152906040525b915050919050565b600081600001549050919050565b61134c828260405180602001604052806000815250611751565b5050565b61135982610c2b565b611398576040517f08c379a000000000000000000000000000000000000000000000000000000000815260040161138f906122d0565b60405180910390fd5b806006600084815260200190815260200160002090805190602001906113bf9291906119a9565b505050565b6001816000016000828254019250508190555050565b60008151905060006a636f6e736f6c652e6c6f679050602083016000808483855afa5050505050565b505050565b505050565b600061142e8473ffffffffffffffffffffffffffffffffffffffff166117ac565b15611597578373ffffffffffffffffffffffffffffffffffffffff1663150b7a02611457610c97565b8786866040518563ffffffff1660e01b81526004016114799493929190612127565b602060405180830381600087803b15801561149357600080fd5b505af19250505080156114c457506040513d601f19601f820116820180604052508101906114c19190611d55565b60015b611547573d80600081146114f4576040519150601f19603f3d011682016040523d82523d6000602084013e6114f9565b606091505b5060008151141561153f576040517f08c379a0000000000000000000000000000000000000000000000000000000008152600401611536906121b0565b60405180910390fd5b805181602001fd5b63150b7a0260e01b7bffffffffffffffffffffffffffffffffffffffffffffffffffffffff1916817bffffffffffffffffffffffffffffffffffffffffffffffffffffffff19161491505061159c565b600190505b949350505050565b606060008214156115ec576040518060400160405280600181526020017f3000000000000000000000000000000000000000000000000000000000000000815250905061174c565b600082905060005b6000821461161e57808061160790612669565b915050600a8261161791906124eb565b91506115f4565b60008167ffffffffffffffff811115611660577f4e487b7100000000000000000000000000000000000000000000000000000000600052604160045260246000fd5b6040519080825280601f01601f1916602001820160405280156116925781602001600182028036833780820191505090505b5090505b60008514611745576001826116ab919061251c565b9150600a856116ba91906126b2565b60306116c69190612495565b60f81b818381518110611702577f4e487b7100000000000000000000000000000000000000000000000000000000600052603260045260246000fd5b60200101907effffffffffffffffffffffffffffffffffffffffffffffffffffffffffffff1916908160001a905350600a8561173e91906124eb565b9450611696565b8093505050505b919050565b61175b83836117cf565b611768600084848461140d565b6117a7576040517f08c379a000000000000000000000000000000000000000000000000000000000815260040161179e906121b0565b60405180910390fd5b505050565b6000808273ffffffffffffffffffffffffffffffffffffffff163b119050919050565b600073ffffffffffffffffffffffffffffffffffffffff168273ffffffffffffffffffffffffffffffffffffffff16141561183f576040517f08c379a0000000000000000000000000000000000000000000000000000000008152600401611836906122f0565b60405180910390fd5b61184881610c2b565b15611888576040517f08c379a000000000000000000000000000000000000000000000000000000000815260040161187f906121f0565b60405180910390fd5b61189460008383611403565b6001600360008473ffffffffffffffffffffffffffffffffffffffff1673ffffffffffffffffffffffffffffffffffffffff16815260200190815260200160002060008282546118e49190612495565b92505081905550816002600083815260200190815260200160002060006101000a81548173ffffffffffffffffffffffffffffffffffffffff021916908373ffffffffffffffffffffffffffffffffffffffff160217905550808273ffffffffffffffffffffffffffffffffffffffff16600073ffffffffffffffffffffffffffffffffffffffff167fddf252ad1be2c89b69c2b068fc378daa952ba7f163c4a11628f55a4df523b3ef60405160405180910390a46119a560008383611408565b5050565b8280546119b590612606565b90600052602060002090601f0160209004810192826119d75760008555611a1e565b82601f106119f057805160ff1916838001178555611a1e565b82800160010185558215611a1e579182015b82811115611a1d578251825591602001919060010190611a02565b5b509050611a2b9190611a2f565b5090565b5b80821115611a48576000816000905550600101611a30565b5090565b6000611a5f611a5a846123f0565b6123cb565b905082815260208101848484011115611a7757600080fd5b611a828482856125c4565b509392505050565b6000611a9d611a9884612421565b6123cb565b905082815260208101848484011115611ab557600080fd5b611ac08482856125c4565b509392505050565b600081359050611ad781612c2e565b92915050565b600081359050611aec81612c45565b92915050565b600081359050611b0181612c5c565b92915050565b600081519050611b1681612c5c565b92915050565b600082601f830112611b2d57600080fd5b8135611b3d848260208601611a4c565b91505092915050565b600082601f830112611b5757600080fd5b8135611b67848260208601611a8a565b91505092915050565b600081359050611b7f81612c73565b92915050565b600060208284031215611b9757600080fd5b6000611ba584828501611ac8565b91505092915050565b60008060408385031215611bc157600080fd5b6000611bcf85828601611ac8565b9250506020611be085828601611ac8565b9150509250929050565b600080600060608486031215611bff57600080fd5b6000611c0d86828701611ac8565b9350506020611c1e86828701611ac8565b9250506040611c2f86828701611b70565b9150509250925092565b60008060008060808587031215611c4f57600080fd5b6000611c5d87828801611ac8565b9450506020611c6e87828801611ac8565b9350506040611c7f87828801611b70565b925050606085013567ffffffffffffffff811115611c9c57600080fd5b611ca887828801611b1c565b91505092959194509250565b60008060408385031215611cc757600080fd5b6000611cd585828601611ac8565b9250506020611ce685828601611add565b9150509250929050565b60008060408385031215611d0357600080fd5b6000611d1185828601611ac8565b9250506020611d2285828601611b70565b9150509250929050565b600060208284031215611d3e57600080fd5b6000611d4c84828501611af2565b91505092915050565b600060208284031215611d6757600080fd5b6000611d7584828501611b07565b91505092915050565b600060208284031215611d9057600080fd5b600082013567ffffffffffffffff811115611daa57600080fd5b611db684828501611b46565b91505092915050565b600060208284031215611dd157600080fd5b6000611ddf84828501611b70565b91505092915050565b611df181612550565b82525050565b611e0081612562565b82525050565b6000611e1182612452565b611e1b8185612468565b9350611e2b8185602086016125d3565b611e348161279f565b840191505092915050565b6000611e4a8261245d565b611e548185612479565b9350611e648185602086016125d3565b611e6d8161279f565b840191505092915050565b6000611e838261245d565b611e8d818561248a565b9350611e9d8185602086016125d3565b80840191505092915050565b6000611eb6603283612479565b9150611ec1826127b0565b604082019050919050565b6000611ed9602583612479565b9150611ee4826127ff565b604082019050919050565b6000611efc601c83612479565b9150611f078261284e565b602082019050919050565b6000611f1f602483612479565b9150611f2a82612877565b604082019050919050565b6000611f42601983612479565b9150611f4d826128c6565b602082019050919050565b6000611f65602c83612479565b9150611f70826128ef565b604082019050919050565b6000611f88603883612479565b9150611f938261293e565b604082019050919050565b6000611fab602a83612479565b9150611fb68261298d565b604082019050919050565b6000611fce602983612479565b9150611fd9826129dc565b604082019050919050565b6000611ff1602e83612479565b9150611ffc82612a2b565b604082019050919050565b6000612014602083612479565b915061201f82612a7a565b602082019050919050565b6000612037603183612479565b915061204282612aa3565b604082019050919050565b600061205a602c83612479565b915061206582612af2565b604082019050919050565b600061207d602f83612479565b915061208882612b41565b604082019050919050565b60006120a0602183612479565b91506120ab82612b90565b604082019050919050565b60006120c3603183612479565b91506120ce82612bdf565b604082019050919050565b6120e2816125ba565b82525050565b60006120f48285611e78565b91506121008284611e78565b91508190509392505050565b60006020820190506121216000830184611de8565b92915050565b600060808201905061213c6000830187611de8565b6121496020830186611de8565b61215660408301856120d9565b81810360608301526121688184611e06565b905095945050505050565b60006020820190506121886000830184611df7565b92915050565b600060208201905081810360008301526121a88184611e3f565b905092915050565b600060208201905081810360008301526121c981611ea9565b9050919050565b600060208201905081810360008301526121e981611ecc565b9050919050565b6000602082019050818103600083015261220981611eef565b9050919050565b6000602082019050818103600083015261222981611f12565b9050919050565b6000602082019050818103600083015261224981611f35565b9050919050565b6000602082019050818103600083015261226981611f58565b9050919050565b6000602082019050818103600083015261228981611f7b565b9050919050565b600060208201905081810360008301526122a981611f9e565b9050919050565b600060208201905081810360008301526122c981611fc1565b9050919050565b600060208201905081810360008301526122e981611fe4565b9050919050565b6000602082019050818103600083015261230981612007565b9050919050565b600060208201905081810360008301526123298161202a565b9050919050565b600060208201905081810360008301526123498161204d565b9050919050565b6000602082019050818103600083015261236981612070565b9050919050565b6000602082019050818103600083015261238981612093565b9050919050565b600060208201905081810360008301526123a9816120b6565b9050919050565b60006020820190506123c560008301846120d9565b92915050565b60006123d56123e6565b90506123e18282612638565b919050565b6000604051905090565b600067ffffffffffffffff82111561240b5761240a612770565b5b6124148261279f565b9050602081019050919050565b600067ffffffffffffffff82111561243c5761243b612770565b5b6124458261279f565b9050602081019050919050565b600081519050919050565b600081519050919050565b600082825260208201905092915050565b600082825260208201905092915050565b600081905092915050565b60006124a0826125ba565b91506124ab836125ba565b9250827fffffffffffffffffffffffffffffffffffffffffffffffffffffffffffffffff038211156124e0576124df6126e3565b5b828201905092915050565b60006124f6826125ba565b9150612501836125ba565b92508261251157612510612712565b5b828204905092915050565b6000612527826125ba565b9150612532836125ba565b925082821015612545576125446126e3565b5b828203905092915050565b600061255b8261259a565b9050919050565b60008115159050919050565b60007fffffffff0000000000000000000000000000000000000000000000000000000082169050919050565b600073ffffffffffffffffffffffffffffffffffffffff82169050919050565b6000819050919050565b82818337600083830152505050565b60005b838110156125f15780820151818401526020810190506125d6565b83811115612600576000848401525b50505050565b6000600282049050600182168061261e57607f821691505b6020821081141561263257612631612741565b5b50919050565b6126418261279f565b810181811067ffffffffffffffff821117156126605761265f612770565b5b80604052505050565b6000612674826125ba565b91507fffffffffffffffffffffffffffffffffffffffffffffffffffffffffffffffff8214156126a7576126a66126e3565b5b600182019050919050565b60006126bd826125ba565b91506126c8836125ba565b9250826126d8576126d7612712565b5b828206905092915050565b7f4e487b7100000000000000000000000000000000000000000000000000000000600052601160045260246000fd5b7f4e487b7100000000000000000000000000000000000000000000000000000000600052601260045260246000fd5b7f4e487b7100000000000000000000000000000000000000000000000000000000600052602260045260246000fd5b7f4e487b7100000000000000000000000000000000000000000000000000000000600052604160045260246000fd5b6000601f19601f8301169050919050565b7f4552433732313a207472616e7366657220746f206e6f6e20455243373231526560008201527f63656976657220696d706c656d656e7465720000000000000000000000000000602082015250565b7f4552433732313a207472616e736665722066726f6d20696e636f72726563742060008201527f6f776e6572000000000000000000000000000000000000000000000000000000602082015250565b7f4552433732313a20746f6b656e20616c7265616479206d696e74656400000000600082015250565b7f4552433732313a207472616e7366657220746f20746865207a65726f2061646460008201527f7265737300000000000000000000000000000000000000000000000000000000602082015250565b7f4552433732313a20617070726f766520746f2063616c6c657200000000000000600082015250565b7f4552433732313a206f70657261746f7220717565727920666f72206e6f6e657860008201527f697374656e7420746f6b656e0000000000000000000000000000000000000000602082015250565b7f4552433732313a20617070726f76652063616c6c6572206973206e6f74206f7760008201527f6e6572206e6f7220617070726f76656420666f7220616c6c0000000000000000602082015250565b7f4552433732313a2062616c616e636520717565727920666f7220746865207a6560008201527f726f206164647265737300000000000000000000000000000000000000000000602082015250565b7f4552433732313a206f776e657220717565727920666f72206e6f6e657869737460008201527f656e7420746f6b656e0000000000000000000000000000000000000000000000602082015250565b7f45524337323155524953746f726167653a2055524920736574206f66206e6f6e60008201527f6578697374656e7420746f6b656e000000000000000000000000000000000000602082015250565b7f4552433732313a206d696e7420746f20746865207a65726f2061646472657373600082015250565b7f45524337323155524953746f726167653a2055524920717565727920666f722060008201527f6e6f6e6578697374656e7420746f6b656e000000000000000000000000000000602082015250565b7f4552433732313a20617070726f76656420717565727920666f72206e6f6e657860008201527f697374656e7420746f6b656e0000000000000000000000000000000000000000602082015250565b7f4552433732314d657461646174613a2055524920717565727920666f72206e6f60008201527f6e6578697374656e7420746f6b656e0000000000000000000000000000000000602082015250565b7f4552433732313a20617070726f76616c20746f2063757272656e74206f776e6560008201527f7200000000000000000000000000000000000000000000000000000000000000602082015250565b7f4552433732313a207472616e736665722063616c6c6572206973206e6f74206f60008201527f776e6572206e6f7220617070726f766564000000000000000000000000000000602082015250565b612c3781612550565b8114612c4257600080fd5b50565b612c4e81612562565b8114612c5957600080fd5b50565b612c658161256e565b8114612c7057600080fd5b50565b612c7c816125ba565b8114612c8757600080fd5b5056fea2646970667358221220b092f759c2b14e0ab0acadb01d6cc2d856b5e744a5a3bb43858b2bdb72313bd264736f6c63430008040033",
  "linkReferences": {},
  "deployedLinkReferences": {}
}